{
  "_format": "hh-sol-artifact-1",
  "contractName": "Counter",
  "sourceName": "contracts/myContract.sol",
  "abi": [
    {
      "inputs": [],
      "stateMutability": "nonpayable",
      "type": "constructor"
    },
    {
      "inputs": [
        {
          "internalType": "uint256",
          "name": "_value1",
          "type": "uint256"
        },
        {
          "internalType": "uint256",
          "name": "_value2",
          "type": "uint256"
        }
      ],
      "name": "CountePlus",
      "outputs": [],
      "stateMutability": "nonpayable",
      "type": "function"
    },
    {
      "inputs": [],
      "name": "getCount",
      "outputs": [
        {
          "internalType": "uint256",
          "name": "",
          "type": "uint256"
        }
      ],
      "stateMutability": "view",
      "type": "function"
    }
  ],
  "bytecode": "0x608060405234801561001057600080fd5b50600080819055506101d2806100276000396000f3fe608060405234801561001057600080fd5b50600436106100365760003560e01c8063a87d942c1461003b578063c56a141514610059575b600080fd5b610043610075565b60405161005091906100ad565b60405180910390f35b610073600480360381019061006e91906100f9565b61007e565b005b60008054905090565b808261008a9190610168565b6000819055505050565b6000819050919050565b6100a781610094565b82525050565b60006020820190506100c2600083018461009e565b92915050565b600080fd5b6100d681610094565b81146100e157600080fd5b50565b6000813590506100f3816100cd565b92915050565b600080604083850312156101105761010f6100c8565b5b600061011e858286016100e4565b925050602061012f858286016100e4565b9150509250929050565b7f4e487b7100000000000000000000000000000000000000000000000000000000600052601160045260246000fd5b600061017382610094565b915061017e83610094565b925082820190508082111561019657610195610139565b5b9291505056fea26469706673582212206ae95b145714fcbe90a9bace26e954dfb60176a6f14c27c71eb0bd8f1e934f5164736f6c63430008110033",
  "linkReferences": {},
  "deployedLinkReferences": {}
}